:020000040800F2
:1000000078060020CD0100085D09000855090008A8
:1000100059090008A5070008190F00080000000092
:10002000000000000000000000000000A10900081E
:10003000A9070008000000005F090008B50A0008D1
:10004000E7010008E7010008E7010008E7010008F0
:10005000E7010008E7010008E7010008E7010008E0
:10006000E7010008E7010008E7010008E7010008D0
:10007000E7010008E7010008E7010008E7010008C0
:10008000E7010008E7010008E7010008E7010008B0
:10009000E7010008E7010008E7010008E7010008A0
:1000A000E7010008E7010008E7010008E701000890
:1000B000E7010008E7010008E7010008E701000880
:1000C000E7010008E7010008E7010008E701000870
:1000D000E7010008E7010008E7010008E701000860
:1000E000E7010008E7010008E7010008E701000850
:1000F000E7010008E7010008E7010008E701000840
:10010000E7010008E7010008E7010008E70100082F
:10011000E7010008E7010008E7010008E70100081F
:10012000E7010008E7010008E7010008E70100080F
:1001300000F002F800F03AF80AA090E8000C8244BF
:100140008344AAF10107DA4501D100F02FF8AFF29C
:10015000090EBAE80F0013F0010F18BFFB1A43F0A5
:1001600001031847D00D0000F00D0000103A24BF25
:1001700078C878C1FAD8520724BF30C830C144BF0C
:1001800004680C607047000000230024002500264E
:10019000103A28BF78C1FBD8520728BF30C148BFEA
:1001A0000B6070471FB51FBD10B510BD00F031F8D2
:1001B0001146FFF7F7FF00F0B1FE00F04FF803B46F
:1001C000FFF7F2FF03BC00F057F800000948804732
:1001D00009480047FEE7FEE7FEE7FEE7FEE7FEE729
:1001E000FEE7FEE7FEE7FEE704480549054A064B41
:1001F00070470000B90A00083101000878000020AB
:1002000078060020780200207802002070477047AE
:100210007047754600F02CF8AE4605006946534617
:1002200020F00700854618B020B5FFF7DDFFBDE8D8
:1002300020404FF000064FF000074FF000084FF04D
:10024000000B21F00701AC46ACE8C009ACE8C009DE
:10025000ACE8C009ACE8C0098D46704710B504464B
:10026000AFF300802046BDE81040FFF7A8BF0000B4
:10027000004870471800002001491820ABBEFEE777
:10028000260002007047000010B54FF47A71024852
:1002900000F0C7FD10BD0000002C014010B5044661
:1002A000A4B2B4F57A7F01DD4FF47A74C4F57A70A4
:1002B00081B2024800F0B5FD10BD0000002C0140E5
:1002C00010B54FF47A71024800F0ADFD10BD00008A
:1002D0000034014010B50446A4B2B4F57A7F01DDC4
:1002E0004FF47A74C4F57A7081B2024800F09BFD35
:1002F00010BD00000034014010B54FF47A7102487F
:1003000000F08DFD10BD0000002C014010B504462A
:10031000A4B2B4F57A7F01DD4FF47A74C4F57A7033
:1003200081B2024800F07BFD10BD0000002C0140AE
:1003300010B54FF47A71024800F075FD10BD000051
:100340000004004010B50446A4B2B4F57A7F01DD84
:100350004FF47A74C4F57A7081B2024800F063FDFC
:1003600010BD00000004004010B54FF47A7102483F
:1003700000F055FD10BD00000034014010B50446EA
:10038000A4B2B4F57A7F01DD4FF47A74C4F57A70C3
:1003900081B2024800F043FD10BD0000003401406E
:1003A00010B54FF47A71024800F03DFD10BD000019
:1003B000002C014010B50446A4B2B4F57A7F01DDEB
:1003C0004FF47A74C4F57A7081B2024800F02BFDC4
:1003D00010BD0000002C014010B54FF47A71C80622
:1003E00000F023FD10BD10B50446A4B2B4F57A7F29
:1003F00001DD4FF47A74C4F57A7081B24FF0804019
:1004000000F013FD10BD10B54FF47A71C80600F06E
:100410000AFD10BD10B50446A4B2B4F57A7F01DD23
:100420004FF47A74C4F57A7081B24FF0804000F0D6
:10043000FAFC10BD08B501211D2000F0A1FA4FF40F
:100440008040ADF8000018208DF8030003208DF8DF
:1004500002006946204800F0A8F90220ADF800002B
:1004600069461D4800F0A1F94FF48070ADF8000016
:1004700069461A4800F099F90120ADF80000694674
:10048000154800F092F94020ADF800006946144884
:1004900000F08BF94FF40040ADF8000069460E48BB
:1004A00000F083F901210F4800F00AFA4FF40060D0
:1004B000ADF800006946084800F077F94FF4806015
:1004C000ADF800006946044800F06FF94FF4406150
:1004D000014800F03DFA08BD000C01400008014051
:1004E000001001400003180070B504460D46FFF7E8
:1004F000A1FF2946204600F01DF82946204600F0BD
:10050000E1F82946204600F06BF82946204600F025
:10051000A5F8FFF7B9FEFFF7D3FEFFF7EDFEFFF7F3
:1005200007FFFFF721FFFFF73BFFFFF755FFFFF73F
:100530006AFF70BD30B587B005460C460121C80280
:1005400000F01EFAADF81450ADF810400020ADF8E0
:100550001600ADF812008DF8180004A91F4800F02D
:1005600067FC6020ADF800000120ADF80200042017
:10057000ADF804000020ADF80600ADF80800082032
:10058000ADF80A004001ADF80C000020ADF80E00F7
:100590006946124800F0E8FA6946104800F03AFB54
:1005A00069460E4800F096FB08210C4800F028FB35
:1005B00008210A4800F080FB0821084800F0DAFB17
:1005C0000121064800F0A8FA0121044800F0BCFA15
:1005D0000121024800F0ACFA07B030BD002C014008
:1005E00030B587B005460C460121084600F0B8F941
:1005F000ADF81450ADF810400020ADF81600ADF87D
:10060000120004A94FF0804000F012FC6020ADF809
:1006100000000120ADF802000020ADF80600ADF8A2
:10062000080069464FF0804000F054FB69464FF0E7
:10063000804000F0A9FB0821C80600F09BFB0821C0
:10064000C80600F0DFFB0121880700F065FA0121F0
:10065000880700F06DFA07B030BD000030B587B0F4
:1006600005460C460121022000F07AF9ADF814503D
:10067000ADF810400020ADF81600ADF8120004A946
:100680000F4800F0D5FB6020ADF800000120ADF868
:1006900002000020ADF80600ADF8080069460848E1
:1006A00000F018FB0821064800F064FB0121044813
:1006B00000F032FA0121024800F03AFA07B030BDEA
:1006C0000004004030B587B005460C4601214803C0
:1006D00000F056F9ADF81450ADF810400020ADF818
:1006E0001600ADF812008DF8180004A91B4800F0A0
:1006F0009FFB6020ADF800000120ADF8020004204F
:10070000ADF804000020ADF80600ADF808000820A0
:10071000ADF80A004001ADF80C000020ADF80E0065
:1007200069460E4800F020FA69460C4800F0D2FAFB
:1007300008210A4800F064FA0821084800F01AFB72
:100740000121064800F0E8F90121044800F0FCF915
:100750000121024800F0ECF907B030BD003401403F
:1007600010B56FF0040000F091F90A4800680A49DA
:10077000B0FBF1F0094908700846007800EB400131
:10078000C1EBC0104FF6FF7101EAC00004490880B8
:1007900010BD00000400002000127A0000000020BC
:1007A0000200002000BFFEE770472DE9F04102463D
:1007B00000250026002000230024002791F803C014
:1007C0000CF00F0591F803C00CF0100CBCF1000FF9
:1007D00003D091F802C04CEA050591F800C0BCF1C5
:1007E000000F31D0146800202BE04FF0010C0CFA00
:1007F00000F3B1F800C00CEA03069E4220D183004A
:100800004FF00F0C0CFA03F7BC4305FA03FC4CEA5B
:10081000040491F803C0BCF1280F06D14FF0010C7D
:100820000CFA00FCC2F814C00AE091F803C0BCF155
:10083000480F05D14FF0010C0CFA00FCC2F810C0B3
:10084000401C0828D1D31460B1F800C0BCF1FF0FE0
:1008500034DD546800202EE000F1080C4FF0010850
:1008600008FA0CF3B1F800C00CEA03069E4221D14D
:1008700083004FF00F0C0CFA03F7BC4305FA03FC9E
:100880004CEA040491F803C0BCF1280F05D100F133
:10089000080C08FA0CF8C2F8148091F803C0BCF1F7
:1008A000480F07D100F1080C4FF0010808FA0CF8C6
:1008B000C2F81080401C0828CED35460BDE8F081F7
:1008C000F0B50A46002300240021002500F0004670
:1008D000B6F1004F02D11D4EF16901E01B4E716867
:1008E000C0F3034583B200F44016B6F5401F08D1AB
:1008F00021F07061154E766826F07066134F7E60A9
:1009000012E000F48016B6F5801F06D1032606FA21
:1009100005F4A14341F0706106E0460D360103FA8B
:1009200006F6B14341F0706122B1460D360103FA7B
:1009300006F6314300F00046B6F1004F02D1034EF7
:10094000F16101E0014E7160F0BD00000000014066
:100950000161704700BFFEE700BFFEE770477047C8
:1009600029B1064AD2690243044BDA6104E0034A22
:10097000D2698243014BDA617047000000100240E7
:1009800029B1064A92690243044B9A6104E0034A82
:1009900092698243014B9A61704700000010024047
:1009A000704710B500F002F810BD00000CB5002033
:1009B000019000903348006840F48030314908606D
:1009C00000BF3048006800F4003000900198401CDF
:1009D0000190009818B90198B0F5A06FF1D129489D
:1009E000006800F4003010B10120009001E0002008
:1009F00000900098012843D12348006840F010007F
:100A0000214908600846006820F003000860084695
:100A1000006840F0020008601A48406819494860C0
:100A20000846406848600846406840F48060486076
:100A30000846406820F47C1048600846406840F44E
:100A4000E81048600846006840F08070086000BF09
:100A50000C48006800F000700028F9D00948406890
:100A600020F00300074948600846406840F0020053
:100A7000486000BF0348406800F00C000828F9D126
:100A80000CBD00000010024000200240042808D1E4
:100A90004FF0E021096941F004014FF0E0221161BB
:100AA00007E04FF0E021096921F004014FF0E02256
:100AB000116170477047000010B51348006840F09E
:100AC00001001149086008464068104908400E4975
:100AD0004860084600680E4908400B49086008460F
:100AE000006820F4802008600846406820F4FE007A
:100AF00048604FF41F008860FFF753FF4FF000601D
:100B00000449086010BD0000001002400000FFF81A
:100B1000FFFFF6FE08ED00E021B1028842F08002FE
:100B2000028004E002884FF67F731A40028070470B
:100B300021B1028842F00102028004E002884FF6EF
:100B4000FE731A400280704731B1B0F8442042F47D
:100B50000042A0F8442005E0B0F84420C2F30E02A1
:100B6000A0F844207047000070B500240022002344
:100B7000058C4FF6FE7635400584028C8388048B05
:100B80004FF68F752C40B51E2C400D882C43751EDA
:100B90002A400D892A434D882A43144DA8420BD080
:100BA000134DA84208D0134DA84205D0124DA842BB
:100BB00002D0124DA84213D14FF6F7752A404D8945
:100BC0002A434FF6FB752A408D882A434FF6FF656E
:100BD0002B404FF6FF552B408D892B43CD892B435E
:100BE00083800483CD888586028470BD002C0140FB
:100BF00000340140004001400044014000480140F1
:100C00000A460021018B4FF6F77319401143018307
:100C10007047000070B5002400220023058C4FF6B9
:100C2000EF7635400584028C8388048B48F6FF7587
:100C30002C404FF6FF452C400D884FF6FF7606EA14
:100C400005252C434FF6DF752A400D8906EA051568
:100C50002A434D8806EA05152A43154DA84202D0BD
:100C6000144DA8421DD14FF67F752A404D894FF68D
:100C7000FF7606EA05152A434FF6BF752A408D8890
:100C800006EA05152A434FF6FF352B404FF2FF7554
:100C90002B408D8906EA85052B43CD8906EA85051B
:100CA0002B4383800483CD880587028470BD0000B8
:100CB000002C0140003401400A460021018B4FF214
:100CC000FF7319404FF6FF7303EA022319430183B0
:100CD0007047000070B5002400220023058C4FF6F9
:100CE000FF6635400584028C8388848B4FF68F75B0
:100CF0002C404FF6FC752C400D882C434FF6FF55C9
:100D00002A400D894FF6FF7606EA05252A434D88CD
:100D100006EA05252A43154DA84202D0144DA842E3
:100D20001DD14FF2FF752A404D894FF6FF7606EA36
:100D300005252A434FF6FF352A408D8806EA05250A
:100D40002A434EF6FF752B404DF6FF752B408D89DB
:100D500006EA05152B43CD8906EA05152B4383804A
:100D60008483CD888587028470BD0000002C0140FB
:100D7000003401400A460021818B4FF6F773194079
:100D8000114381837047000070B5002200230024C6
:100D9000058C4EF6FF7635400584038C8488828B63
:100DA00048F6FF752A404FF6FF452A400D884FF65A
:100DB000FF7606EA05252A434DF6FF752B400D897F
:100DC00006EA05352B434D8806EA05352B430B4DC6
:100DD000A84202D00A4DA84208D14BF6FF752C401C
:100DE0008D894FF6FF7606EA85152C438480828331
:100DF000CD88A0F84050038470BD0000002C014055
:100E0000003401400A460021818B4FF2FF731940E4
:100E10004FF6FF7303EA02231943818370478186EB
:100E200070470187704781877047A0F8401070476E
:100E3000002202881D4B98420ED01D4B98420BD0C9
:100E4000B0F1804F08D01B4B984205D01A4B984206
:100E500002D01A4B984204D14FF68F731A404B8838
:100E60001A43174B984207D0164B984204D04FF6BE
:100E7000FF431A40CB881A4302808B8883850B88F6
:100E800003850A4B98420BD0094B984208D00E4B71
:100E9000984205D00D4B984202D00D4B984201D19B
:100EA0000B7A03860123838270470000002C0140E7
:100EB000003401400004004000080040000C0040E5
:100EC0000010004000140040004001400044014078
:100ED000004801401FE04FF4FA70FFF7DFF94FF4CC
:100EE000FA70FFF7F7F94FF4FA70FFF70FFA4FF4C3
:100EF000FA70FFF727FA4FF4FA70FFF73FFA4FF452
:100F0000FA70FFF757FA4FF4FA70FFF76CFA4FF4E4
:100F1000FA70FFF77FFADEE700BFFEE710B5FFF7D4
:100F20001FFC472140F2E730FFF7DEFAFFF7D2FF60
:100F3000002010BD540F0008000000201800000021
:100F40006C0100086C0F000818000020600600000B
:100F5000880100080000000000A24A040000000010
:0C0F60000000000001020304060708095D
:0400000508000131BD
:00000001FF
