:020000040800F2
:100000007808002015020008AD1400080911000846
:10001000A9140008990A00087323000800000000D2
:10002000000000000000000000000000D5160008DD
:10003000B30C00080000000035150008A5180008E2
:10004000852300082F0200082F0200082F02000855
:100050002F0200082F0200082F0200082F020008BC
:100060002F0200082F0200082F0200082F020008AC
:100070002F0200082F0200089D0A00082F02000826
:100080002F0200082F0200082F0200082F0200088C
:100090002F0200082F0200082F0200082F0200087C
:1000A0002F0200082F0200082F0200082F0200086C
:1000B000491B0008611B0008791B00082F0200087B
:1000C0002F0200082F0200082F0200082F0200084C
:1000D0002F0200084D2100086D2100082F020008A2
:1000E0002F0200082F0200082F0200082F0200082C
:1000F0002F0200082F0200082F0200082F0200081C
:100100002F0200082F020008911B00082F02000890
:100110002F0200082F020008A91B00082F02000868
:100120002F0200082F0200082F0200082F020008EB
:1001300000F002F800F05FF80AA090E8000C82449A
:100140008344AAF10107DA4501D100F054F8AFF277
:10015000090EBAE80F0013F0010F18BFFB1A43F0A5
:1001600001031847A8390000C83900000A444FF0BD
:10017000000C10F8013B13F0070408BF10F8014B06
:100180001D1108BF10F8015B641E05D010F8016B4B
:10019000641E01F8016BF9D113F0080F1EBF10F8AF
:1001A000014BAD1C0C1B09D16D1E58BF01F801CBD2
:1001B000FAD505E014F8016B01F8016B6D1EF9D555
:1001C0009142D6D37047000000230024002500266A
:1001D000103A28BF78C1FBD8520728BF30C148BFAA
:1001E0000B607047782900F06B80002070471FB5C6
:1001F0001FBD10B510BD00F0E1F91146FFF7F7FF84
:1002000002F018FC00F0FFF903B4FFF7F2FF03BCA3
:1002100002F0CFF80948804709480047FEE7FEE7AB
:10022000FEE7FEE7FEE7FEE7FEE7FEE7FEE7FEE7A6
:1002300004480549054A064B70470000A918000804
:10024000310100087802002078080020780400209E
:1002500078040020704700000FB4044910B503AAC9
:10026000029800F079F910BC5DF814FB340000200E
:1002700070B5044685690068C10601D5302600E0E6
:100280002026C00707D070BDD4E901213046904731
:10029000206A401C20626D1EF6D570BD70B5044604
:1002A00085690078C00707D170BDD4E901212020FD
:1002B0009047206A401C20626D1EF6D570BD00007C
:1002C00070B504460D4621461068AFF300802188C2
:1002D000090502D50F4A7A4402E00E4A7A440E32EA
:1002E000002104F1240305E000F00F060009965DEB
:1002F0005E54491C0028F7D120780023000704D55C
:10030000702D02D009B1022311322046BDE87040A1
:1003100000F0C9B8F83700002DE9F05F89460446BF
:100320004FF0000ADFF824B1FB44C0F820A02046BB
:10033000E168884700287DD0252806D0D4E901212E
:100340009047206A401C2062F1E700255F46204666
:10035000E16888472028064607DB312E05D2B81908
:1003600010F8200C08B10543F1E7A80701D525F0E6
:100370000405C4F81CA00027C4F818A02A2E09D030
:10038000304602F00FF838B304EB8708303EC8F867
:10039000186019E059F8041B204604EB87029161AC
:1003A000E1688847012F064618D1E069002820DA65
:1003B00025F020051DE0D8F8180000EB800006EBC2
:1003C00040003038C8F818002046E16888470646E3
:1003D00001F0E8FF0028EED1012F0AD02E2E08D11F
:1003E0002046E16888477F1C0646022F45F020051D
:1003F000C4DBA069002803DA404245F00105A06192
:10040000E80701D025F01005A6B1A6F14100192892
:1004100002D8203645F400654A463146204625601C
:100420004D46FFF7DFFE60B1012807D0ED1D25F036
:10043000070000E007E000F1080978E705F104098A
:1004400075E730467AE7206ABDE8F09FCE370000B6
:100450004FF0000200B5134694469646203922BF5D
:10046000A0E80C50A0E80C50B1F12001BFF4F7AFA8
:10047000090728BFA0E80C5048BF0CC05DF804EB8A
:10048000890028BF40F8042B08BF704748BF20F8F8
:10049000022B11F0804F18BF00F8012B70477047F6
:1004A0007047704770472DE9F0470D4699469246D0
:1004B000044600F124080168880604D5E06921F0AB
:1004C0001001216000E00120A84201DD471B00E08F
:1004D0000027A1697A1902EB0900081AA0612078A7
:1004E000C00602D42046FFF7C3FE002608E0D4E988
:1004F00001211AF806009047206A401C761C2062F1
:100500004E45F4DB2078C0060AD52046FFF7B0FE42
:1005100006E0D4E9012130209047206A401C206287
:10052000381EA7F10107F4DC07E0D4E9012118F82F
:1005300005009047206A401C2062281EA5F1010595
:10054000F3DC2046FFF7AAFE2078000602D5022041
:10055000BDE8F0870120FBE7074B70B50D467B44F3
:1005600000F011F80446284600F020F810B14FF0D2
:10057000FF3070BD204670BDB322000001694A1CE7
:1005800002610878704700B58FB0CDE901310021D4
:10059000059105497944CDE9031011466846FFF7F6
:1005A000BBFE0FB000BD0000E5FFFFFF007B00F0C9
:1005B0008000704700487047180200207546FFF71A
:1005C000F9FFAE4605006946534620F00700854610
:1005D00018B020B5FFF72CFEBDE820404FF0000614
:1005E0004FF000074FF000084FF0000B21F007011B
:1005F000AC46ACE8C009ACE8C009ACE8C009ACE85E
:10060000C0098D46704710B50446AFF30080204600
:10061000BDE81040FFF7F8BD08B50121042000F047
:10062000ABFF0420ADF8000003208DF80200182075
:100630008DF803006946074800F090FC0820ADF8EB
:10064000000004208DF803006946024800F086FC93
:1006500008BD00000008014010B50446FFF7DCFFAC
:1006600000F004F8204600F011F810BD08B526206F
:100670008DF8000000208DF8010001208DF80200A7
:100680008DF80300684600F013FF08BD1FB504464F
:100690000121480400F060FF00940020ADF8040040
:1006A000ADF80600ADF80800ADF80C000C20ADF870
:1006B0000A006946064801F0EBFD012240F225518F
:1006C000034801F0C0FD0121014801F07DFD1FBD7F
:1006D0000044004010B54FF47A71024801F0A7FCC5
:1006E00010BD00000034014010B54FF47A7102488B
:1006F00001F09BFC10BD00000034014010B54FF428
:100700007A71024801F08FFC10BD000000340140F6
:1007100010B54FF47A71024801F089FC10BD000059
:10072000002C014008B501211D2000F025FF4FF4E9
:100730008040ADF8000010208DF8030003208DF8F4
:10074000020069462E4800F009FC0220ADF80000C6
:1007500018208DF803006946294800F0FFFB4FF48C
:100760008070ADF8000010208DF803006946254820
:1007700000F0F4FB0120ADF8000018208DF8030014
:1007800069461F4800F0EAFB4020ADF80000182041
:100790008DF8030069461C4800F0E0FB4FF4004070
:1007A000ADF8000018208DF803006946144800F0E9
:1007B000D5FB4FF40060ADF8000010208DF8030069
:1007C00069460F4800F0CAFB4FF48060ADF80000A6
:1007D00010208DF803006946094800F0BFFB4FF474
:1007E0000060ADF8000018208DF803006946054848
:1007F00000F0B4FB4FF40061024800F083FC08BD38
:10080000000C0140000801400010014070B5044692
:100810000D46FFF787FF2946204600F00DF82946D0
:10082000204600F057F8FFF755FFFFF75DFFFFF791
:1008300065FFFFF76DFF70BD30B587B005460C460C
:100840000121C80200F098FEADF81450ADF8104038
:100850000020ADF81600ADF812008DF8180004A9BC
:100860001B4801F017FC6020ADF800000120ADF836
:1008700002000420ADF804000020ADF80600ADF839
:1008800008000820ADF80A004001ADF80C00002077
:10089000ADF80E0069460E4801F020FB69460C4891
:1008A00001F076FB08210A4801F068FB082108489E
:1008B00001F0ACFB0121064801F092F90121044846
:1008C00001F0ACF90121024801F09CF907B030BDFC
:1008D000002C014030B587B005460C460121480385
:1008E00000F04AFEADF81450ADF810400020ADF80D
:1008F0001600ADF812008DF8180004A91F4801F089
:10090000C9FB6020ADF800000120ADF80200042012
:10091000ADF804000020ADF80600ADF8080008208E
:10092000ADF80A004001ADF80C000020ADF80E0053
:100930006946124801F01CFA6946104801F06EFA47
:1009400069460E4801F0CAFA08210C4801F05CFA29
:1009500008210A4801F0B4FA0821084801F00EFB0A
:100960000121064801F03CF90121044801F056F943
:100970000121024801F046F907B030BD00340140C2
:1009800010B56FF0040000F079FF0A4800680A49CA
:10099000B0FBF1F0094908700846007800EB40010F
:1009A000C1EBC0104FF6FF7101EAC0000449088096
:1009B00010BD00000C01002000127A002E00002063
:1009C000300000200146114A12884A434FF0E023CC
:1009D0005A6100229A611A46126942F001021A61B4
:1009E00000BF4FF0E022106900F001021AB100F4DC
:1009F0008032002AF5D04FF0E022126922F0010285
:100A00004FF0E0231A6100229A6170473000002005
:100A100010B500F04FF900F0B7F900F003FA00F05C
:100A20004FFA10BD10B5044600F004F8204600F05F
:100A300011F810BD08B536208DF8000001208DF8A2
:100A400001008DF802008DF80300684600F030FDCB
:100A500008BD00003EB504460121102000F07CFDD9
:100A6000601E80B2ADF804004720ADF80000002001
:100A7000ADF80600ADF802006946064801F00AFB31
:100A800001221146034801F06AF90121014801F0F1
:100A9000B9F83EBD0010004000BFFEE710B54FF4AE
:100AA000005000F0C9F808B101F0BAFD10BD000017
:100AB00000F0805111B10349086001E0024948602B
:100AC00070470000040402400000024021B10268A7
:100AD00042F00102026004E002684FF6FE731A4021
:100AE0000260704701684FF6FE72114001600021FC
:100AF000016041608160C1604B49884208D14A4928
:100B00000839496841F00F01474A083A51608AE0C4
:100B100045491431884208D143490839496841F0B0
:100B2000F001414A083A51607DE03F49283188424E
:100B300008D13D490839496841F470613A4A083A98
:100B4000516070E038493C31884208D13649083953
:100B5000496841F47041344A083A516063E03249CF
:100B60005031884208D130490839496841F4702130
:100B70002D4A083A516056E02B496431884208D129
:100B800029490839496841F47001274A083A5160F7
:100B900049E025497831884208D123490839496814
:100BA00041F07061204A083A51603CE01F49884298
:100BB00006D1011F096841F00F01021F116032E0E8
:100BC0001A491431884208D11849091F096841F0AF
:100BD000F001164A121F116025E01449283188429D
:100BE00008D11249091F096841F470610F4A121FA8
:100BF000116018E00D493C31884208D10B49091FAA
:100C0000096841F47041094A121F11600BE007495D
:100C10005031884207D10549091F096841F4702104
:100C2000024A121F11607047080002400804024087
:100C30000146486880B2704701460020002201F05A
:100C4000805313B1054B1A6801E0054B1A6802EA9C
:100C500001030BB1012000E00020704700040240B6
:100C6000000002401AB103680B43036002E003680E
:100C70008B430360704710B50022026847F6F0739B
:100C80009A430C6A8B6823430C6923434C692343C2
:100C90008C692343CC6923434C6A23438C6A2343E6
:100CA0001A430260CB6843600B6883604B68C36083
:100CB00010BD704700B587B00121084600F05CFC0C
:100CC0000121084600F048FC0121042000F054FCFA
:100CD0000121082000F050FC0121284800F0CAF949
:100CE0004FF40040ADF8000004208DF80300694681
:100CF000234800F033F90820ADF8000004208DF8F7
:100D0000030069461F4800F029F904A801F014FA0D
:100D10000020ADF810004FF6FF70ADF81400002071
:100D2000ADF81600ADF8120004A94FF0804001F0B4
:100D3000B1F900231A4603214FF0804000F07DFFF7
:100D400001A801F003F80A20ADF80C0001A9400742
:100D500000F0A6FF0121880700F04EFF0122114696
:100D6000900700F0FCFF00214FF0804001F064F993
:100D70000121880700F046FF07B000BD0001180000
:100D800000080140000C014000B587B0012102209D
:100D900000F0E2FB0121042000F0EEFBC020ADF8E2
:100DA000000004208DF8030069461C4800F0D6F8C6
:100DB00004A801F0C1F90020ADF810004FF6FF7053
:100DC000ADF814000020ADF81600ADF8120004A92B
:100DD000134801F05FF900231A460321104800F080
:100DE0002CFF01A800F0B2FF0A20ADF80C0001A909
:100DF0000B4800F055FF0121094800F0FDFE0122DB
:100E00001146074800F0ABFF0021054801F014F936
:100E10000121034800F0F6FE07B000BD00080140C4
:100E20000004004000B587B00121042000F094FBCD
:100E30000121082000F0A0FBC020ADF80000042034
:100E40008DF8030069461C4800F088F804A801F0FA
:100E500073F90020ADF810004FF6FF70ADF81400E4
:100E60000020ADF81600ADF8120004A9134801F0F7
:100E700011F900231A460321104800F0DEFE01A8F4
:100E800000F064FF0A20ADF80C0001A90B4800F047
:100E900007FF0121094800F0AFFE01221146074873
:100EA00000F05DFF0021054801F0C6F8012103486C
:100EB00000F0A8FE07B000BD000C01400008004093
:100EC00000B587B00121082000F046FB0121042075
:100ED00000F052FB0320ADF8000004208DF8030061
:100EE00069461C4800F03AF804A801F025F90020F2
:100EF000ADF810004FF6FF70ADF814000020ADF80B
:100F00001600ADF8120004A9134801F0C3F800233D
:100F10001A460321104800F090FE01A800F016FFC9
:100F20000A20ADF80C0001A90B4800F0B9FE012120
:100F3000094800F061FE01221146074800F00FFF4A
:100F40000021054801F078F80121034800F05AFE1D
:100F500007B000BD00080140000C00402DE9F04141
:100F6000024600250026002000230024002791F8D7
:100F700003C00CF00F0591F803C00CF0100CBCF18D
:100F8000000F03D091F802C04CEA050591F800C0AB
:100F9000BCF1000F31D0146800202BE04FF0010CA1
:100FA0000CFA00F3B1F800C00CEA03069E4220D10F
:100FB00083004FF00F0C0CFA03F7BC4305FA03FC57
:100FC0004CEA040491F803C0BCF1280F06D14FF09D
:100FD000010C0CFA00FCC2F814C00AE091F803C03E
:100FE000BCF1480F05D14FF0010C0CFA00FCC2F81F
:100FF00010C0401C0828D1D31460B1F800C0BCF167
:10100000FF0F34DD546800202EE000F1080C4FF093
:10101000010808FA0CF3B1F800C00CEA03069E427E
:1010200021D183004FF00F0C0CFA03F7BC4305FAF3
:1010300003FC4CEA040491F803C0BCF1280F05D16D
:1010400000F1080C08FA0CF8C2F8148091F803C0FB
:10105000BCF1480F07D100F1080C4FF0010808FA65
:101060000CF8C2F81080401C0828CED35460BDE8AC
:10107000F0810000F0B50A4600230024002100257D
:1010800000F00046B6F1004F02D11D4EF16901E0BB
:101090001B4E7168C0F3034583B200F44016B6F5E9
:1010A000401F08D121F07061154E766826F07066F9
:1010B000134F7E6012E000F48016B6F5801F06D153
:1010C000032606FA05F4A14341F0706106E0460DDF
:1010D000360103FA06F6B14341F0706122B1460DC4
:1010E000360103FA06F6314300F00046B6F1004F30
:1010F00002D1034EF16101E0014E7160F0BD0000CC
:10110000000001404161704700BFFEE72DE9F05F3C
:1011100004460D46601B224908600846006802F03C
:101120007FFB83461F480168584602F091FB8046CA
:101130001B4909681C4A1268881A02F071FB834631
:101140001A480168584602F083FB8146414602F086
:1011500027FA07461648006802F062FB82463946C5
:1011600002F01EFA064602F03FFB114908600846ED
:10117000006842F21071884202DD08460C4908609E
:101180000B4800680B49884202DA084608490860A3
:10119000034800680449086005480068BDE8F09FFE
:1011A00094000020840000209C000020800000208B
:1011B00098000020F0D8FFFF2DE9F05F04460D46AF
:1011C000601B224908600846006802F029FB83463C
:1011D0001F480168584602F03BFB80461B490968DE
:1011E0001C4A1268881A02F01BFB83461A480168E1
:1011F000584602F02DFB8146414602F0D1F90746E0
:101200001648006802F00CFB8246394602F0C8F925
:10121000064602F0E9FA114908600846006842F201
:101220001071884202DD08460C4908600B480068CE
:101230000B49884202DA08460849086003480068FA
:101240000449086005480068BDE8F09FA000002040
:1012500084000020A800002080000020A4000020BE
:10126000F0D8FFFF2DE9F05F04460D46601B2249D0
:1012700008600846006802F0D3FA83461F480168F8
:10128000584602F0E5FA80461B4909681C4A126874
:10129000881A02F0C5FA83461A480168584602F0D7
:1012A000D7FA8146414602F07BF9074616480068A6
:1012B00002F0B6FA8246394602F072F9064602F0AA
:1012C00093FA114908600846006842F2107188429A
:1012D00002DD08460C4908600B4800680B4988424B
:1012E00002DA0846084908600348006804490860B3
:1012F00005480068BDE8F09FAC0000208400002095
:10130000B400002080000020B0000020F0D8FFFFD3
:101310002DE9F05F04460D46601B2249086008462F
:10132000006802F07DFA83461F480168584602F0C3
:101330008FFA80461B4909681C4A1268881A02F015
:101340006FFA83461A480168584602F081FA8146CE
:10135000414602F025F907461648006802F060FA97
:101360008246394602F01CF9064602F03DFA114960
:1013700008600846006842F21071884202DD0846A3
:101380000C4908600B4800680B49884202DA08469D
:101390000849086003480068044908600548006877
:1013A000BDE8F09FB800002084000020C0000020AD
:1013B00080000020BC000020F0D8FFFF0146490655
:1013C000084A926942F00102064B9A61064A526845
:1013D00022F0E062044B5A601A4652680A435A608F
:1013E0007047000000100240000001402DE9F04766
:1013F00004460E4615462749284602F029FA824639
:1014000084F000493146484602F0CAF88046514609
:1014100002F0C6F8074602F0E7F91F4908601D49C7
:10142000284602F015FA80463146204602F0B8F808
:101430008146414602F0B4F8074602F0D5F9174953
:1014400008601449284602F003FA824684F00049F5
:101450003146484602F0A4F88046514602F0C4FAEC
:10146000074602F0C1F90E4908600A49284602F011
:10147000EFF980463146204602F092F88146414617
:1014800002F0B2FA074602F0AFF906490860BDE87B
:10149000F087000004568E3E380000203C000020FB
:1014A000400000204400002000BFFEE7704700001D
:1014B00070B5002100230F22C47804B3154C2468B2
:1014C00004F4E064C4F5E064210AC1F10403CA40F5
:1014D000447804FA03F184781440214309010E4C46
:1014E0000678A155047804F01F050124AC40057866
:1014F0006D11AD0005F1E025C5F8004109E0047863
:1015000004F01F050124AC40044D0678761145F81F
:10151000264070BD0CED00E000E400E080E100E05A
:1015200002490143024A1160704700000000FA05B9
:101530000CED00E07047000029B1064A52690243F1
:10154000044B5A6104E0034A52698243014B5A61D9
:10155000704700000010024029B1064AD2690243D8
:10156000044BDA6104E0034AD2698243014BDA6139
:10157000704700000010024029B1064A92690243F8
:10158000044B9A6104E0034A92698243014B9A61D9
:10159000704700000010024030B5002100220024F6
:1015A00000232D4D6D6805F00C0121B1042905D0F3
:1015B000082923D105E0294D056022E0274D05606B
:1015C0001FE0254D6D6805F47012234D6D6805F41C
:1015D0008034022505EB92421CB9214D554305602C
:1015E0000BE01D4D6D6805F400351DB11C4D5543D4
:1015F000056002E0194D5543056002E0174D056096
:1016000000BF00BF144D6D6805F0F0010909154DCC
:101610006B5C0568DD4045600F4D6D6805F4E06169
:10162000090A104D6B5C4568DD4085600A4D6D68A8
:1016300005F46051C90A0B4D6B5C4568DD40C5601F
:10164000054D6D6805F44041890B074D6B5CC5681D
:10165000B5FBF3F5056130BD0010024000127A00C1
:1016600000093D0020010020300100200146022930
:1016700006D003290DD0042912D0052920D117E066
:101680004FF08042928C10B200224FF080439A8437
:1016900018E00D4A128810B200220B4B1A8011E09C
:1016A0000A4A128812B250420022084B1A8009E0FE
:1016B000074A128812B250420022054B1A8001E0FC
:1016C000002000BF00BF70472404004024080040F1
:1016D000240C0040704710B500F002F810BD000067
:1016E0000CB50020019000903348006840F4803031
:1016F0003149086000BF3048006800F400300090B5
:101700000198401C0190009818B90198B0F5A06F9D
:10171000F1D12948006800F4003010B10120009098
:1017200001E0002000900098012843D12348006880
:1017300040F01000214908600846006820F00300CE
:1017400008600846006840F0020008601A484068D7
:10175000194948600846406848600846406840F4B7
:10176000806048600846406820F47C104860084665
:10177000406840F4E81048600846006840F0807017
:10178000086000BF0C48006800F000700028F9D025
:101790000948406820F0030007494860084640684F
:1017A00040F00200486000BF0348406800F00C00B1
:1017B0000828F9D10CBD00000010024000200240B2
:1017C00070B504460020002C06DD2518274E358014
:1017D0000025274E356008E042F2107525442D1A89
:1017E000224E35800125224E3560002907DD0D1877
:1017F0001E4E361F358000251E4E356009E042F230
:1018000010750D442D1A194E361F35800125194EBD
:101810003560002A0BDD42F21075AD1A2D1A134EF9
:10182000083E35800125124E0C3E356008E05542D9
:1018300005440E4E083E358000250D4E0C3E3560A9
:10184000002B07DD1D180C4E35800025084E103E7C
:10185000356009E042F210751D442D1A064E3580A0
:101860000125034E103E356070BD00003C34014040
:10187000B8812142A00121423C2C0140042808D11A
:101880004FF0E021096941F004014FF0E0221161BD
:1018900007E04FF0E021096921F004014FF0E02258
:1018A000116170477047000010B51348006840F0A0
:1018B00001001149086008464068104908400E4977
:1018C0004860084600680E4908400B490860084611
:1018D000006820F4802008600846406820F4FE007C
:1018E00048604FF41F008860FFF7F5FE4FF000607E
:1018F0000449086010BD0000001002400000FFF81D
:10190000FFFFF6FE08ED00E0F0B50C46154600229C
:101910000021068C4FF6FE773E400684028B018C38
:101920004FF60C7632407E1C06EA03162E433243F5
:10193000104EB0420ED0104EB0420BD0B0F1804FDE
:1019400008D00E4EB04205D00D4EB04202D00D4E22
:10195000B04206D14FF6FD76314044F001063143E6
:1019600005E04FF6F576314044F00106314302833D
:101970000184F0BD002C014000340140000400400F
:1019800000080040000C0040F0B50C46154600224F
:1019900000210026078C4FF6EF7C07EA0C0707842E
:1019A000028B018C4FF6FF7707EA041640F6FF47DB
:1019B0003A404FF6FF7707EA03373A434FF6FF778F
:1019C00007EA05273A43114FB8420ED0104FB842EC
:1019D0000BD0B0F1804F08D00E4FB84205D00E4F5B
:1019E000B84202D00D4FB84206D14FF6DF773940EA
:1019F00046F01007394305E04FF65F77394044F071
:101A00001007394302830184F0BD0000002C01401F
:101A1000003401400004004000080040000C004079
:101A2000F0B50C461546002200210026078C4FF623
:101A3000FF6C07EA0C070784828B018C4FF6FF7757
:101A400007EA04264FF60C773A404FF6FF7707EA8D
:101A500003172F433A43114FB8420ED0104FB842EC
:101A60000BD0B0F1804F08D00E4FB84205D00E4FCA
:101A7000B84202D00D4FB84206D14FF6FF57394059
:101A800046F48077394305E04FF2FF57394044F47C
:101A90008077394382830184F0BD0000002C01402F
:101AA000003401400004004000080040000C0040E9
:101AB000F0B50C461546002200210026078C4EF694
:101AC000FF7C07EA0C070784828B018C4FF6FF77B7
:101AD00007EA043640F6FF473A404FF6FF7707EA39
:101AE00005273A434FF6FF7707EA03373A43114F8A
:101AF000B8420ED0104FB8420BD0B0F1804F08D092
:101B00000E4FB84205D00E4FB84202D00D4FB8422A
:101B100006D14DF6FF77394046F48057394305E04A
:101B200047F6FF57394044F4805739438283018494
:101B3000F0BD0000002C01400034014000040040D2
:101B400000080040000C00404FF08040008A4FF039
:101B50008040008A20F001004FF0804108827047E9
:101B6000044800880348008820F0010001490880EB
:101B700070470000100400400448008803480088B3
:101B800020F0010001490880704700001008004063
:101B9000044800880348008820F0010001490880BB
:101BA00070470000100C004010B501210A4800F0F9
:101BB00065F858B109480088401C08490880084663
:101BC0000088B0F57A7F01DD0020088001210248FD
:101BD00000F015F810BD0000001000402C0000209F
:101BE00021B1028842F08002028004E002884FF6B0
:101BF0007F731A4002807047CA4302827047CA430B
:101C00000282704721B1028842F00102028004E0A2
:101C100002884FF6FE731A400280704731B1B0F867
:101C2000442042F40042A0F8442005E0B0F84420EB
:101C3000C2F30E02A0F844207047F0B50C461546DA
:101C40001E460021002200230189028B038C4FF6DF
:101C5000F877394021434FF6FC473A4040F20117EC
:101C60003A434FF6DD773B404FF6FF7707EA06171A
:101C70002F433B43018102830384F0BD30B502460C
:101C8000002000230024158A05EA0103958905EA4E
:101C9000010413B10CB1012000E0002030BD0000B0
:101CA00070B505460C46244885420ED0234885422F
:101CB0000BD0B5F1804F08D02148854205D021488E
:101CC000854202D02048854200D100E000BF208834
:101CD00050B92389A28861882846FFF715FEE1885C
:101CE000284600F0ABF925E0208804280AD1238992
:101CF000A28861882846FFF747FEE188284600F061
:101D0000A6F917E0208808280AD12389A2886188CB
:101D10002846FFF785FEE188284600F0A5F909E08E
:101D20002389A28861882846FFF7C2FEE1882846F9
:101D300000F0A3F970BD0000002C01400034014008
:101D40000004004000080040000C00400021018019
:101D50004180012181800021C180018170471AB139
:101D600083890B43838102E083898B43838170479E
:101D700070B5002400220023058C4FF6FE76354016
:101D80000584028C8388048B4FF68F752C40B51E1A
:101D90002C400D882C43751E2A400D892A434D88FE
:101DA0002A43144DA8420BD0134DA84208D0134D1E
:101DB000A84205D0124DA84202D0124DA84213D11C
:101DC0004FF6F7752A404D892A434FF6FB752A4096
:101DD0008D882A434FF6FF652B404FF6FF552B4069
:101DE0008D892B43CD892B4383800483CD888586C1
:101DF000028470BD002C01400034014000400140CD
:101E000000440140004801400A460021018B4FF682
:101E1000F7731940114301837047000070B5002427
:101E200000220023058C4FF6EF7635400584028CA6
:101E30008388048B48F6FF752C404FF6FF452C40F5
:101E40000D884FF6FF7606EA05252C434FF6DF7521
:101E50002A400D8906EA05152A434D8806EA05152C
:101E60002A43154DA84202D0144DA8421DD14FF669
:101E70007F752A404D894FF6FF7606EA05152A43FD
:101E80004FF6BF752A408D8806EA05152A434FF69E
:101E9000FF352B404FF2FF752B408D8906EA8505F3
:101EA0002B43CD8906EA85052B4383800483CD88A7
:101EB0000587028470BD0000002C01400034014001
:101EC0000A460021018B4FF2FF7319404FF6FF7352
:101ED00003EA0223194301837047000070B5002410
:101EE00000220023058C4FF6FF6635400584028CE6
:101EF0008388848B4FF68F752C404FF6FC752C40F1
:101F00000D882C434FF6FF552A400D894FF6FF767A
:101F100006EA05252A434D8806EA05252A43154D7C
:101F2000A84202D0144DA8421DD14FF2FF752A409D
:101F30004D894FF6FF7606EA05252A434FF6FF3511
:101F40002A408D8806EA05252A434EF6FF752B4068
:101F50004DF6FF752B408D8906EA05152B43CD897B
:101F600006EA05152B4383808483CD888587028408
:101F700070BD0000002C0140003401400A460021E1
:101F8000818B4FF6F773194011438183704700002E
:101F900070B5002200230024058C4EF6FF763540F4
:101FA0000584038C8488828B48F6FF752A404FF69F
:101FB000FF452A400D884FF6FF7606EA05252A439D
:101FC0004DF6FF752B400D8906EA05352B434D88EC
:101FD00006EA05352B430B4DA84202D00A4DA84214
:101FE00008D14BF6FF752C408D894FF6FF7606EA37
:101FF00085152C4384808283CD88A0F840500384CB
:1020000070BD0000002C0140003401400A46002150
:10201000818B4FF2FF7319404FF6FF7303EA0223DF
:102020001943818370478186704701877047818794
:102030007047A0F84010704781847047028B4FF6BC
:10204000F3731A400283028B0A4302837047028BA8
:102050004FF2FF331A400283028B4FF6FF7303EAFD
:1020600001231A4302837047828B4FF6F3731A40A1
:102070008283828B0A4382837047828B4FF2FF33C5
:102080001A408283828B4FF6FF7303EA01231A43BF
:1020900082837047002202881D4B98420ED01D4B50
:1020A00098420BD0B0F1804F08D01B4B984205D01E
:1020B0001A4B984202D01A4B984204D14FF68F73B4
:1020C0001A404B881A43174B984207D0164B984238
:1020D00004D04FF6FF431A40CB881A4302808B8806
:1020E00083850B8803850A4B98420BD0094B984295
:1020F00008D00E4B984205D00D4B984202D00D4BA4
:10210000984201D10B7A0386012383827047000035
:10211000002C014000340140000400400008004051
:10212000000C00400010004000140040004001403E
:1021300000440140004801404FF6FF7181800021BA
:102140000180C180418001727047000010B540F2EB
:102150002441054800F04DF820B100F0F3F90248A1
:1021600000F002F910BD00000038014010B540F247
:102170002551124800F03DF8F0B1104800F0F4F895
:102180000F49086008460068412809DB08460068D6
:102190004B2805DC0846006840380A4908600BE017
:1021A00007480068082804DC0548006805490860FD
:1021B00002E0002003490860002010BD00440040F8
:1021C000040100200801002021B1828942F400525C
:1021D000828104E082894DF6FF731A408281704744
:1021E0001AB1838A0B43838202E0838A8B43838202
:1021F000704770B50246002400230025002040F6F9
:102200006A16B14200D100BFC1F3421501F01F03AD
:10221000012606FA03F3012D02D19689334006E028
:10222000022D02D1168A334001E0968A33400C1207
:10223000012606FA04F41688344013B10CB10120CB
:1022400000E0002070BDF0B5034600240026002504
:10225000002040F66A17B94200D100BF1846C1F30A
:10226000421401F01F06012707FA06F5012C01D1DF
:102270000C3004E0022C01D1103000E014301AB10F
:1022800007682F43076002E00768AF430760F0BDAF
:102290002DE9F04786B005460E460024A24600BF51
:1022A000A1460027B08900B100BF2F462C8A4CF60A
:1022B000FF700440F08804432C82AC894EF6F31082
:1022C0000440B08831890843718908430443AC81D4
:1022D000AC8A4FF6FF400440B0890443AC8201A8A9
:1022E000FFF75AF91F48874202D1DDF810A001E03C
:1022F000DDF80CA0A88900F4004040B10AEBCA0048
:1023000000EB0A1031684900B0FBF1F807E00AEB76
:10231000CA0000EB0A1031688900B0FBF1F86420B4
:10232000B8FBF0F004012009642101FB1089A889A1
:1023300000F4004040B1322000EBC900B0FBF1F0E6
:1023400000F00700044308E0322000EB091064218C
:10235000B0FBF1F000F00F0004432C8106B0BDE8A3
:10236000F08700000038014001468888C0F308006B
:10237000704700BFFEE70000002001490860704779
:10238000082C004010B5502000F004F8FFF7F4FFCF
:1023900010BD000000F07F01014A1160704700008D
:1023A000002C004030380A2801D20120704700205C
:1023B000704700BF704708B54FF48060FFF7B0F872
:1023C0000E208DF8000002208DF8010000208DF80D
:1023D000020001208DF803006846FFF769F8252008
:1023E0008DF8000002208DF8010001208DF8020018
:1023F0008DF803006846FFF75BF808BD10B500F0E4
:1024000039F9FFF7D8FF00F017F900F039F800F0BC
:1024100001F810BD1FB54FF4E13000900020ADF879
:102420000400ADF80600ADF80800ADF80C000C2073
:10243000ADF80A0069461148FFF72AFF012240F271
:1024400024410E48FFF7FFFE012280210B48FFF7D1
:10245000C7FE012240210948FFF7C2FE01210748BB
:10246000FFF7B2FE012280210448FFF7B9FE0122E6
:1024700040210248FFF7B4FE1FBD000000380140B4
:1024800000B58BB000212B48FEF720FB2948FEF752
:1024900029FB2948009029480190102002904020F3
:1024A0000390002004908020059000200690079063
:1024B00008904FF44050099000200A9069461D484A
:1024C000FEF7D9FB4FF48050FEF7F2FA0122022109
:1024D0001848FEF7C7FB002116481430FEF7F6FA3D
:1024E00014481430FEF7FEFA134800901448019087
:1024F000002002904020039000200490802005904E
:1025000000200690079008904FF44050099000205A
:102510000A90694607481430FEF7ADFB4FF480304F
:10252000FEF7C6FA012103481430FEF7CFFA0BB0CC
:1025300000BD000044000240043801403401002086
:102540007401002070B500211F48FEF7BFFA4FF458
:102550008030FEF7ADFA1C48FEF76AFBC0F1400080
:10256000C5B2402018495839C86540211748FDF7C1
:102570006FFF17A0FDF770FE00240AE01848005D09
:10258000124908550846015D16A0FDF765FE601C5E
:10259000C4B2AC42F2DB15A0FDF75EFE0B4800F0C2
:1025A000F5F910B112A0FDF757FE002404E0002059
:1025B0000B490855601CC4B2AC42F8DB012102484B
:1025C000FEF784FA70BD000058000240B4010020FC
:1025D000526563656976656420646174613A0000E0
:1025E0007401002030782530327800000A0D000098
:1025F0006461746120616E616C797A6520657272C4
:102600006F720A0D0000000010B504460348846490
:10261000012102484430FEF759FA10BD0000024083
:1026200010B54FF48050FEF743FA00210148FEF741
:102630004DFA10BD4400024008B548208DF8030053
:102640004FF48060ADF8000069460948FEF786FC4B
:1026500003208DF8020018208DF803004FF400705D
:10266000ADF8000069460248FEF778FC08BD00009E
:102670000008014010B501210846FEF75DFF012169
:102680000520FEF779FF01218803FEF775FF10BDD5
:1026900010B55B4908685B49096800F081FF58493B
:1026A000086048685849096800F07AFF5449486052
:1026B00054480068886054480068C86053480068FF
:1026C000086148695149096800F06AFF4C4948614E
:1026D000AA204F49087048704948007888704848D7
:1026E0004078C8704648807808714548C07848717D
:1026F00043480079887142484079C87140488079E0
:1027000008723F48C07948723D48007A88723C4858
:10271000407AC8723A48807A08733948C07A487358
:102720003748007B88733648407BC8733448807BC9
:1027300008743348C07B48743148007C8874304842
:10274000407CC8742E48807C08752D48C07C487534
:102750002B48007D88752A48407DC8752848807DB3
:1027600008762748C07D487608468078C978484072
:1027700027490979484026494979484024498979B7
:1027800048402349C97948402149097A48402049AD
:10279000497A48401E49897A48401D49C97A4840CB
:1027A0001B49097B48401A49497B48401849897BA5
:1027B00048401749C97B48401549097C484014499D
:1027C000497C48401249897C48401149C97C4840AD
:1027D0000F49097D48400E49497D48400C49897D93
:1027E00048400B49C97D48400949097E484008498D
:1027F000497E4840064988761B20FFF705FF10BD3B
:10280000F4010020680000206C000020700000200F
:102810003401002000BF064A128802F04002002A5C
:10282000F9D0C0F30802024B1B1D1A80704700004C
:10283000003801402DE9F04F87B004460D4616469A
:1028400099466119314401EB090000F0E9FF804627
:102850004FF0814100F006FF0746404900F002FFBB
:102860000690069800F070FE3D4A3E4BCDE902010D
:1028700000F036FD82463C4A3C4B00F031FD0746F5
:1028800000F016FB3A4908600846016839480068BC
:1028900000F086FE3749086061422944891B01EB3C
:1028A000090000F0BDFF80464FF0814100F0DAFEE4
:1028B00007462A4900F0D6FE0590059800F044FE30
:1028C0008246274A274B00F00BFD0746264A274B36
:1028D00000F006FDCDE9020100F0EAFA26490860A1
:1028E000084601682548006800F05AFE2349086040
:1028F0006142491B314401EB090000F091FF804621
:102900004FF0814100F0AEFE0746144900F0AAFEE8
:102910000490049800F018FE0746114A114B00F08D
:10292000DFFC114A114BCDE9000100F0D9FC4FF05A
:102930000042134BCDE9020100F0F8FA824600F0A4
:10294000B7FA10490860084601680F48006800F0AF
:1029500027FE0D49086007B0BDE8F08F0000B041C8
:102960004AD8124DFB2109407B14AE47E17AB43FAF
:1029700068000020740000206C0000207800002017
:10298000C0CAD13F700000207C00002030B5014655
:102990000020002200230C78FF2C1DD14C78FF2C46
:1029A0001AD18C78CD786C400D796C404D796C40A3
:1029B0008D796C40CD796C400D7A6C404D7A6C40CD
:1029C0008D7A6C40CD7A6C400D7B6C404D7B6C40B9
:1029D00062B28C7B63B202E04FF0FF3030BD9342B5
:1029E00002D04FF0FF30F9E7114C002525606560FB
:1029F000A5608C780E4D2C70CC786C700C79AC7016
:102A00004C79EC708C792C71CD79094C65710D7A0B
:102A1000A5714D7AE5718C7A054D2C72CD7A044CF6
:102A200065720D7BA5724D7BE57200BFD6E7000095
:102A30000C0200201FB54FF00109FE4800904FF432
:102A40002F740120FEF7BAFC0220FEF769FD4FF457
:102A50001650FDF701FEFFF7D1FC4FF47A70FDF739
:102A6000E1FFFDF7D5FF8F2142F20F70FDF7CEFE9B
:102A7000FDF786FF00231A4619461846FEF7A0FE0A
:102A80004FF47A70FDF79EFF40F24C41EA48FFF7A1
:102A9000D0FA4FF47A70FDF795FF4FF47A70FDF796
:102AA00091FF4FF4FA71E448FFF7C3FA4FF47A70DC
:102AB000FDF788FFF5E1E1480088322190FBF1F253
:102AC00001FB12000028F5D14FF40771DA48FFF737
:102AD000B0FADB4800680C2873D2DFE800F0BD06CE
:102AE0001A2D405E7391A4BDB7BA0020D549086085
:102AF000D548006800F094FE0646009900F050FDAD
:102B0000054600F071FED04908600020CF490860FA
:102B1000AAE00020CB490860CB490860CB48006898
:102B200000F07EFE0646009900F03AFD054600F0F2
:102B30005BFEC649086097E0C248006800F070FE7E
:102B40000646009900F02CFD054600F04DFEBD49FB
:102B500008600020BC490860BC49086084E0B948AE
:102B6000006800F05DFE0646009900F019FD05467C
:102B700000F03AFEB3490860B348006800F050FE28
:102B80000646009900F030FF054600F02DFEAE49E4
:102B900008600020AD49086066E00020A94908608F
:102BA000A948006800F03CFE0646009900F01CFFB2
:102BB000054600F019FEA44908600020A3490860FA
:102BC00052E049E09F48006800F02AFE064600995E
:102BD00000F00AFF054600F007FE9A4908609A488F
:102BE000006800F01DFE0646009900F0FDFE054657
:102BF00000F0FAFD9449086000209449086033E031
:102C00009048006800F00CFE0646009900F0ECFECB
:102C1000054600F0E9FD8B49086000208A490860FC
:102C20008A49086020E000208649086086490860DB
:102C30008648006800F0F4FD0646009900F0D4FED6
:102C4000054600F0D1FD814908600DE04FF0010913
:102C50000AE04FF0000907E000207A4908607A494D
:102C600008607A49086000BF00BF7648006861428A
:102C7000884202DA60427349086072480068A042E4
:102C800001DD70480460704800686142884202DAE1
:102C900060426D4908606C480068A04201DD6A48E6
:102CA0000460604200F0C9FA0746694A694B00F0C7
:102CB00017FB05460E466548006800F0BEFA8246DE
:102CC0002A46334600F0D0FA0CD2604200F0B5FA42
:102CD00007465F4A5F4B00F003FB054600F07EFAB3
:102CE0005A490860204600F0A8FA0546584A594B50
:102CF00000F0F6FA074688465448006800F09DFA4E
:102D000082463A46434600F0E9FB0CD2204600F0EA
:102D100094FA05464E4A4F4B00F0E2FA074600F09F
:102D20005DFA4A4908604948006800F079FD0546A7
:102D30004548006800F074FD06464248006800F00F
:102D40006FFD07462A463146FEF750FB42480168B0
:102D5000424800F07DFD03903F4841683F4800F045
:102D600077FD02903C4881683C4800F071FD01907D
:102D7000B9F1000F14D135480068404200F050FD11
:102D800005463148006800F04BFD06462D480068B6
:102D900000F046FD07462A463146FEF727FB07E0CE
:102DA000B9F1010F04D1DDE901200399FEF71EFB03
:102DB000FFF76EFC2A4803682A4802682A4801681F
:102DC0002A480068FFF736FD0220FEF74FFC27492E
:102DD00008600320FEF74AFC234908600420FEF740
:102DE00045FC204908600520FEF740FC1C490860AE
:102DF0001F4801681D480068FEF788F91D490860F2
:102E00001D48016818480068FEF7D6F91B4908609C
:102E10001B48016813480068FEF724FA1949086046
:102E2000194801680E480068FEF772FA17490860F1
:102E300008462DE000004842002C01402C000020F4
:102E4000080100202000002024000020280000208D
:102E5000B81E85EB51B80C400C02002000009642D1
:102E60000C000020080000200400002000000020CA
:102E700038000020100000203C000020140000203A
:102E80004000002018000020440000201C0000200A
:102E90000368044802680448016804480068FEF7B3
:102EA0008FFC08E61800002014000020100000200D
:102EB00021F00042A2F16052B2F5801F01F0004300
:102EC00028BFD2F17F6C0BD95FEA001C43EAC20233
:102ED00042EB507018BF704728BF20F001007047C8
:102EE000B2F5801FBCBF184670474FEA410C1CF575
:102EF000001F02D2084600F072BD70B500F09AFAC9
:102F000000000089FFF7F6BF4FF00040A0F58000F9
:102F10007047491058BFC1F140415B1058BFC3F121
:102F200040438B42EFF30080704700002DE9C04121
:102F300030B4DFF8A0C23CEA111418BF3CEA131405
:102F400000F0EC8081EA03051CEA111444EAD57410
:102F500018BF1CEA131500F0C780A4EB05044FF05E
:102F6000004545EAC12145EAC32341EA505143EAFD
:102F7000525304F17F74994204F500344FEAC020A3
:102F80004FEAC22208BF904200F09C804FEA1365CE
:102F90000FF24016765D4FEA134506FB05F7C7F1C1
:102FA000807706FB07F74FEAD737A7FB036876421F
:102FB000C8F58038A7FB06CE38BFA8F1010807FB8B
:102FC00008E64FF0000EA6FB028CE6FB03CEDCF118
:102FD000000CCEF1004E38BFAEF1010EA6FB0C582E
:102FE0004FF000074FF00005E6FB0E87A1FB08C677
:102FF000A0FB07CE16EB0E0645F10005E1FB0765C9
:1030000015F1E04E7EBFA4F580345FEA46066D41BF
:1030100016F1800745F100054FEA17274FEA0666CB
:1030200047EA0567A6F1DE46B6F1805F4FEA15254F
:103030001FD9384624F0010C05EBC471BCF1FE6FBA
:1030400001EB0C1102D8F0BCBDE8008124425CBF4A
:1030500001F5801E9EEAC47F02D4F0BCBDE8008169
:10306000244238D4F0BCA1F1C041BDE8004100F0D9
:103070002FBA4FEAD22242EA43524FEAD323A7FBA8
:1030800002864FEAD02040EA415007FB03661EEA61
:103090000E0F4FEAD12105FB026658BFA6EB005682
:1030A000B6EB00564FEA520E4EEAC37E18EB0E0EF8
:1030B00056EB530EBDD518EB02085E417F1C55F14F
:1030C0000005B6E74FF480154FF000074FF00006FB
:1030D0004FF00008ADE7F0BC4FF0000001F1C04137
:1030E00001F00041BDE8008111EA0C1F0CEA131544
:1030F00000D00CE013EA0C1F00F025804FF0000018
:10310000F0BC81EA030101F00041BDE80081F0BCA0
:10311000BDE8004181EA030100F0DAB9F0BCBDE886
:10312000004170B500F086F9097EFC3E00F007B85A
:1031300081EA03014FF0000001F00041704781EA8D
:10314000030100F0C5B9F0BCBDE800414FF000003C
:1031500021497047FFFDFBF9F7F5F4F2F0EEEDEBD6
:10316000E9E8E6E4E3E1E0DEDDDBDAD8D7D5D4D385
:10317000D1D0CFCDCCCBCAC8C7C6C5C4C2C1C0BFD1
:10318000BEBDBCBBBAB9B8B7B6B5B4B3B2B1B0AFD7
:10319000AEADACABAAA9A8A8A7A6A5A4A3A3A2A1BB
:1031A000A09F9F9E9D9C9C9B9A9999989797969576
:1031B00095949393929191908F8F8E8E8D8C8C8B12
:1031C0008B8A89898888878786858584848383829A
:1031D000828181800000FF070000F87F4FEA4103F1
:1031E0004FEA5353A3F58063D3F11E03C8BFD3F155
:1031F000210C0CDD4FF0004242EAC12242EA50525B
:1032000032FA03FC8CEAE17CACEBE1707047102BE6
:10321000C4BF0020704703F5787CBCF1FF3F04D0A9
:103220006FF0004282EA2100704770B500F002F9A9
:103230004992248000207047F2E710F0004248BF16
:103240004042B0FA80F310FA03F10AD0C3F11D0333
:1032500003F580634FEA415002EB035202EBD121A8
:1032600070474FF00000704751EA030C17D41CF56B
:10327000801F58BFBCF5801F00F10680994218BF1F
:10328000704708BF9042704707D711F5801F58BF9D
:1032900013F5801F19D499427047894270471CF575
:1032A000801F08D5BCF5801FF7D58B4218BF70472B
:1032B00008BF824270474FF4001C1CEB410F38BF1F
:1032C0001CEB430F01D28B42704770B500F0B2F88F
:1032D000922449004FF000514FF08053FFF719BE80
:1032E000DFF848C170B51CEA111E1EBF1CEA131599
:1032F0009EEA0C0F95EA0C0F00F06F8081EA030440
:1033000023EA4C134EEAD47E21EA4C1141F4801199
:1033100043F48013AE44A1FB024CA0FB0365AEF165
:103320007F7E361955EB0C05A1FB034C4CF10003D5
:10333000A0FB021C16EB0C06654153F10003094289
:1033400018BF46F0010613F4007F0BD14FEA03319A
:103350004FEA0530340341EA155140EA16506FF048
:1033600003020AE04FEAC3214FEAC520F40241EA12
:10337000555140EA56506FF0020202EB2E4201EB2B
:10338000025585EACE710AD05FEA440C18BF24F0DA
:10339000004450F1000041F1000120EAD47040F2F5
:1033A000FE7C624500D270BDA84214BF4FF080443D
:1033B0004FF04044002E08BF0024BEF1806FA8BF2C
:1033C000A1F1C041BDE8704080F282804FF0000062
:1033D00001F1C04101F0004170479EEA0C0F0CEA78
:1033E000131518BF95EA0C0F06D04FF0000081EAC4
:1033F000030E0EF0004170BD00F01CF88900013E84
:1034000000F007B800F009B84FEA430C5FEA5C5CD3
:1034100008D081EA030100F05BB84FEA410C5FEA93
:103420005C5CF6D14FF00000014970470000FF07D7
:103430000000F87F0EF1020E2EF0030E5EF8046B12
:10344000364205D4012A43EB030515F5001F12D8B7
:10345000012841EB010C1CF5001F0CD80ED14FEADE
:10346000D17C15F5001F0CEB4C0C0CF1020C08BFC5
:103470004CEBD37C04E04FF0080C01E04FEAD37C26
:103480000CEB4C0526FA05F606F00706B6F1040C1F
:1034900006D20EEB860CBDE870404CF0010C604784
:1034A000DFE80CF0090B02024FF000414FF0000082
:1034B000A1F5002170BD19461046012851EB010409
:1034C00018BFD4F5001484BF002001F0004170BD86
:1034D0000808A0F500114FEA3101704753EA010CCA
:1034E00017D41CF5801F58BFBCF5801F00F1068063
:1034F0008B4218BF704708BF8242704707D713F549
:10350000801F58BF11F5801F19D48B4270479B4212
:1035100070471CF5801F08D5BCF5801FF7D5994270
:1035200018BF704708BF904270474FF4001C1CEB57
:10353000430F38BF1CEB410F01D2994270470FB4C3
:103540000CBC03BCFFF7C1BE43004FEAD30C4FEAEB
:103550003C0C43401FBF40070CF1605113F0FE4F7D
:1035600070471CF0006F03D100200CF00041704741
:103570000CF0004343EA507010B540EACC0000F074
:10358000E8F900BF000000924FEA0001FFF7A0BF7A
:103590004FF000414FF00000A1F5002170470000FE
:1035A00090EA010F48BF81F0004100F12482421AE5
:1035B0003CBF801A89184FEAD0524FF07F4C1CEA6A
:1035C000410FA2EBD15318BF9CEA026F00F03B8081
:1035D0004FF0004C4CEA00204CEA012121FA03FC98
:1035E00010EB0C0C1ED202F1FF325FEA1C2040EB04
:1035F000C25038BF70471CF07F0F4FEA400C18BF15
:10360000BCF17F4F38BF7047C3F12003994008BF1A
:1036100020F00100BCF17F4F38BF7047A0F1C040DF
:1036200000F0DDB94FEA3C00000A40EBC25028BF71
:103630001CF0FF0F4FEA400CE6D018BFBCF17F4FE3
:1036400038BF7047EAE79CEA026F05D010EA5C0FCA
:1036500008BF00F00040704710B500F07AF900BFD5
:1036600064FBBE3E4FF47F0C1CEAD0121EBF1CEA66
:10367000D11392EA0C0F93EA0C0F00F0858090EAC8
:10368000010F48BF42F4807240F4000C41F4000086
:103690002CF07F4120F07F4000B58142A2EB030275
:1036A0000FF2081CACEB504EC0F100009EF800E099
:1036B0004FEA4E0E00FB0EFC38BF49004FEA2C1CAF
:1036C00002F5FA020CFB0EF34FEACE1E4FEA112C64
:1036D0004FEAC1210EEB635E42EB22420EFB0CFC73
:1036E0004FEA1C5300FB03114FEA112C4FEA013142
:1036F0000EFB0CFC4FEADC4C00FB0C11C14228BF56
:1037000009184CEB03335DF804EB10EB410143EB7C
:10371000C250B2F57C0F38BF704729D512F0F00FB8
:103720001CBF00F1C04000F0004070470081828360
:103730008485868788898B8C8D8E8F9192939596C0
:1037400097999A9C9D9FA0A2A3A5A7A8AAACAEB04A
:10375000B2B3B5B7B9BCBEC0C2C5C7C9CCCED1D44F
:10376000D7D9DCDFE2E6E9ECF0F3F7FAFE0000007F
:103770004FEA400C0CF1807CBCF17E4F28BF7047B3
:10378000B0F1C04000F02BB990EA010F0CEAD11360
:1037900048BF42F48072624538BF634507D213F4D4
:1037A0007F0F16D080EA010000F00040704710B58E
:1037B00000F0CFF8097EFC3E00F005B880EA010079
:1037C00000F00040704780EA010000F0004000F087
:1037D00006B912F47F0F04BF0248704780EA010067
:1037E00000F0FDB80000C07F41000B0ED3F19E0237
:1037F00008D950F400034FEA032323FA02F048BF2C
:103800004042704710B500F0A4F800BF49922480F0
:10381000002070476FF0004282EA200070470000ED
:1038200010F0004148BF4042B0FA80F310FA03F2B2
:10383000C3F19D030BD051EAC35101EB1220530693
:1038400038BF704700F1010008BF20F00100704749
:103850004FF47F0C1CEAD0121EBF1CEAD11392EA6F
:103860000C0F93EA0C0F00F0478090EA010F48BF5D
:1038700042F480724FF0004C4CEA00204CEA0121E7
:1038800002EB0302A0FB0113A2F50002002918BFFE
:1038900043F001035B0028BF4FEA330342EB2242AF
:1038A0005FEA132C4CEBC2502EBFBCEB436FB2F55A
:1038B0007C0F70474FEA036CBCF1004F08BF20F04B
:1038C0000100B2F57C0F38BF70470BD582F0FF02C4
:1038D00012F5803FC8BF704700F1C040D8BF00F06C
:1038E0000040704700F5000C5FEA4C0C48BF704781
:1038F000B0F1C04000F073B890EA010F0CEAD113A8
:1039000048BF42F48072624538BF634504D280EA02
:10391000010000F00040704710B500F01AF800BF39
:103920008900013E00F007B800F009B85FEA410CD9
:103930005FEA1C6C08D080EA010000F050B85FEA32
:10394000400C5FEA1C6CF6D14FF00040A0F58000FF
:1039500070470EF1020E2EF0030E5EF8044B244267
:1039600004D44FEA4102B2F17F4F11D84FEA40032D
:10397000B3F17F4F0CD80ED14FEAD07CB2F17F4F1C
:103980000CEB4C0C0CF1020C08BF4CEBD17C04E0AE
:103990004FF0080C01E04FEAD17C0CEB4C0324FA09
:1039A00003F404F00704B4F1040C06D20EEB840C0B
:1039B000BDE810404CF0010C6047DFE80CF0070850
:1039C00002024FF00040A0F5800010BD0846420002
:1039D00018BFD2F1807288BF00F0004010BDFF21F7
:1039E00041EAD050C005704790EA010F48BF81F00E
:1039F00000413FF5DCAD421A04D882F00042A0EB52
:103A0000020011444FEAD0524FF07F4C1CEA410FA4
:103A1000A2EBD15318BF9CEA026F4AD04FF0004C82
:103A20004CEA00204CEA012121FA03FCB0EB0C0C1B
:103A30000FD412F0FE0F36D05FEA4C001DD50012F5
:103A400040EBC25038BF70471CF03F0F18BF7047A3
:103A50000BE0A2F101025FEA1C2040EBC25038BF2C
:103A600070471CF07F0F18BF7047C3F120039940C7
:103A700014BF401E20F00100704780084FEA122357
:103A800008BF7047B0FA80FCA2EB0C02CCF1280C06
:103A900060FA0CF093EA122F04BF00EBC25070479B
:103AA0004FEAC3707047130A5FEADC1008BF704723
:103AB000F6E79CEA026F04D010EA5C0F08BF002012
:103AC000704710B5FFF745FF40DFF63E81F000403C
:103AD0007047303132333435363738394142434418
:103AE0004546403058003031323334353637383976
:103AF000616263646566403078000400000800007D
:103B00000000000000020001000010002C3B000833
:103B100000000020340100006C010008503B000848
:103B20003401002044070000C801000801828B48CE
:103B30004204410379204184A24A04680901020336
:103B400004060708090C69100500020406080000B5
:0400000508000131BD
:00000001FF
